:020000040800F2
:100000001005002001010008791E00084B1D0008A2
:10001000751E00085D090008372500080000000073
:100020000000000000000000000000003522000871
:1000300061090008000000000922000837220008BA
:100040001B0100081B0100081B0100081B01000820
:100050001B0100081B0100081B0100081B01000810
:100060001B0100081B0100081B0100081B01000800
:100070001B0100081B0100081B0100081B010008F0
:100080001B0100081B0100081B0100081B010008E0
:100090001B0100081B0100081B0100081B010008D0
:1000A0001B0100081B0100081B0100081B010008C0
:1000B000AD2200081B0100081B0100081B010008FD
:1000C0001B0100081B0100081B0100081B010008A0
:1000D0001B0100081B0100081B0100081B01000890
:1000E0001B0100081B0100081B010008DFF80CD0F1
:1000F00000F0A4FB00480047C52E000810050020B2
:100100000648804706480047FEE7FEE7FEE7FEE7B1
:10011000FEE7FEE7FEE7FEE7FEE7FEE7A9220008AE
:10012000ED0000082DE9F0410024061B254671F181
:10013000000605DA01240027D0EB070067EB010178
:10014000161E73F1000605DA0027D2EB070201251F
:1001500067EB030300F051F986460E4617469C46AE
:10016000AC4204D00025D0EB050E65EB010624B1AE
:100170000020D2EB000760EB030C704631463A4694
:100180006346BDE8F081202A04DB203A21FA02F020
:100190000021704721FA02F3D040C2F120029140C1
:1001A000084319467047D2B201E000F8012B491EFE
:1001B000FBD270470022F6E710B513460A46044604
:1001C0001946FFF7F0FF204610BDF0B480EA0102A7
:1001D000D40F4200B2EB410F02D20246084611464C
:1001E0004A0042D0C30DDDB2C1F3C752AD1A202D73
:1001F00035DAC1F3160141F4000204B15242C5F1EF
:10020000200602FA06F12A411044B3EBD05F23D056
:10021000C4B1012DA0EBC35009DCF0BC4FF000428B
:1002200002EAC352DBB200F5000000F020B9400042
:1002300000F1807000EBC350A0F1807040EAD170F3
:10024000490009E0490841EAC071A0EBC35000F53C
:100250000000400800EBC350F0BC00F0FFB8614262
:10026000012202EB4101001BF6E7F0BC704781F070
:100270000041AAE780F00040A7E780EA010210B53C
:1002800002F00043400022D04A001FD0010E01EBD3
:100290001261C0F35600C2F3560240F4000042F46B
:1002A0000002A0FB022000047F39140400D0401C8F
:1002B00050EA124001D44000491EC2B20C0604EBC1
:1002C000D010401C4008802A02D003E0002010BD5E
:1002D00020F00100002900DA0020184310BD30B4DE
:1002E00080EA010202F0004530F0004221F00040B7
:1002F00013D090B1C30DD40DC2F31601C0F3160094
:10030000E41A41F4000140F400027D34914201D32B
:10031000641C00E04900002C02DA30BC0020704769
:100320004FF400000023914201D3891A034340088F
:100330004FEA4101F7D151B1914202D14FF0004152
:1003400005E002D24FF0010101E06FF0010103EB83
:10035000C450284430BC00F081B8C10F80EAE0707E
:100360000844CA079623002100F081B89623002292
:10037000114600F07CB800F0004220F00040C10DB2
:10038000C0F3160040F400007F2901DA0020704716
:10039000962903DCC1F19601C84001E096398840F6
:1003A000002AF4D04042704700F0004230F0004094
:1003B0000AD0C10D01F56071C0F3160042EA015187
:1003C000C20840071143704700200146704730B50E
:1003D0000B46014600202022012409E021FA02F503
:1003E0009D4205D303FA02F5491B04FA02F528449D
:1003F000151EA2F10102F1DC30BD2DE9F05F0546CA
:10040000002092469B4688460646814640241BE0D3
:100410002846414647462246FFF7B5FE53465A4610
:10042000C01A914110D311461846224600F018FA1E
:100430002D1A67EB01084F4622460120002100F0EB
:100440000FFA17EB00094E41201EA4F10104DFDC76
:10045000484631462A464346BDE8F09F0029A8BFDA
:100460007047401C490008BF20F00100704710B4DD
:10047000B0FA80FC00FA0CF050EA010404BF10BC92
:10048000704749B1CCF1200421FA04F411FA0CF1BF
:1004900018BF012121430843A3EB0C01CB1D4FEAF8
:1004A00000614FEA102042BF002010BC704700EBF3
:1004B000C35010440029A4BF10BC7047401C490021
:1004C00008BF20F0010010BC70472DE9FE4F8046A8
:1004D00081EA0300C00F0C46009021F0004123F098
:1004E0000045B8EB0200A94105D24046214690469E
:1004F0001C460B46024623F00040104347D0270D10
:10050000C7F30A00C3F30A510290401A0190402831
:100510006BDAC3F3130040F4801B0098924620B1BD
:100520000023D2EB030A63EB0B0B01985946C0F191
:100530004002504600F094F906460D465046594692
:10054000019A00F09CF910EB08006141002487EA51
:10055000115284EAE7731A4340D0009A62B3019AB9
:10056000012A4FEA075215DC001B61EB02014FF034
:10057000004202EA0752CDE90042001C41F5801119
:1005800032462B4600F09CF903B0BDE8F08F4046A0
:100590002146F9E7001B61EB0201001C41F58013C5
:1005A00000185B412018A2F5001747EB030140EA51
:1005B000D570B6196D4111E06D084FEA360645EA6F
:1005C000C0754FEA0752001B61EB0201001C41F5A8
:1005D000801149084FEA30000019514132462B463C
:1005E00003B0BDE8F04F00F05CB900980122400074
:1005F0000023D0EB020263EBE073009821464FEA40
:10060000E074B8EB000061EB0401E9E783F000431C
:100610005BE781F0004158E72DE9FE4F81EA0304D2
:1006200004F0004421F0004100944FF0000B23F04F
:10063000004350EA01045ED052EA03045BD0C3F3E6
:100640000A54C1F30A552C44A4F2F3340194A0FBDC
:100650000254C1F3130141F48011C3F3130343F4B3
:10066000801301FB024400FB034E840A970A44EA0C
:10067000815447EA8357A4FB076802958D0A05FB5E
:1006800007854FEA932C04FB0C542705029D4FEA83
:10069000065847EA1637B5EB08056EEB070C870ED0
:1006A000920E47EA811742EA8312A7FB0201B6EBDA
:1006B0000B0164EB00042B0D43EA0C335E1844EB92
:1006C0001C50DA465146E7FB0201C5F313044FEA1A
:1006D0000B3343EA14534FEA0432019C43EA060306
:1006E000A4F10C040294009CCDE900B400F0E8F8F9
:1006F00003B0BDE8F08F00200146F9E72DE9F04D89
:1007000081EA030404F0004B21F0004514464FF049
:10071000000A23F0004150EA050220D054EA010209
:100720001DD0C5F30A570246C5F31303C1F31300E6
:10073000C1F30A5640F4801543F48013A7EB060872
:10074000101BD64608F2FD3873EB050002D308F102
:10075000010801E092185B41B8F1000F03DA0020B4
:100760000146BDE8F08D00204FF480110646844616
:100770000EE0171B73EB050705D3121B63EB050394
:1007800006434CEA010C49084FEA300092185B41DD
:1007900050EA0107EDD152EA030012D082EA0400C8
:1007A00083EA0501084305D0101BAB4106D20122A4
:1007B000002306E000224FF0004302E06FF0010248
:1007C00053101AEB06004CEB085110EB0A0041EBFA
:1007D0000B01BDE8F04D00F064B8C1F30A52C1F35B
:1007E000130140F2FF3341F480119A4202DA0020F3
:1007F0000146704740F233439A42A2F2334202DC90
:100800005242FFF7C0BC00F02BB8000030B5041E08
:1008100071F1000404DB4FF00044404264EB01013D
:10082000141E73F1000405DB1C464FF000435242D6
:1008300063EB0403994208BF904230BD064C074D5C
:1008400006E0E06840F0010394E8070098471034A0
:10085000AC42F6D3FFF74EFCF83500081836000816
:10086000202A04DB203A00FA02F100207047914070
:10087000C2F1200320FA03F3194390407047202A65
:1008800006DBCB17203A41FA02F043EAE07306E0B8
:1008900041FA02F3D040C2F12002914008431946C8
:1008A000704710B5141E73F1000408DA401C41F1C2
:1008B000000192185B411A4301D120F0010010BDE4
:1008C0002DE9F04D92469B4611B1B1FA81F202E05A
:1008D000B0FA80F220329046FFF7C2FF04460F467E
:1008E00040EA0A0041EA0B0153465A46084313D036
:1008F000114653EA010019D0C8F140025046FFF7F3
:1009000042FC05460E46504659464246FFF7A8FFB0
:10091000084305D0012004E020463946BDE8F08DAB
:100920000020054346EAE0762C4337430A986305E6
:10093000E40AA0EB08000022FD0A44EA47540A300A
:1009400002D500200146E9E7010510196941DDE9FA
:10095000084500196941BDE8F04DA2E700BFFEE778
:10096000704772B600BFFEE70020094908700949C8
:1009700008700021084A1160516000BF05E00021A5
:10098000064A42F82010411CC8B20C28F7D3704721
:10099000280000202900002030000020DC0000207A
:1009A00010B504462F4800780C2828D22E482F492D
:1009B000097840F821402E48D0E90020121940EB78
:1009C000E4702B49C1E900202648007800F10100BD
:1009D000244908702548007800F101004FF00C010F
:1009E000B0FBF1F201FB1200204908701D480278AB
:1009F0004FF000031E4903C9FFF794FB10BD1A48CE
:100A00001A49097850F82110CB171948D0E900206D
:100A1000511A60EB0300164AC2E90010124813494C
:100A2000097840F821401046D0E90020121940EB27
:100A3000E4700F49C1E900200C48007800F1010082
:100A40004FF00C01B0FBF1F201FB120007490870F6
:100A50004FF00C024FF00003054903C9FFF762FB9A
:100A6000CCE7000029000020DC0000202800002046
:100A70003000002070B51348007820B9FFF774FFEC
:100A800001201049087000F025F80F490860084659
:100A900000680E49086008460068FFF75EFC0546DE
:100AA0000B49FFF71CFC0446FFF765FC074908608B
:100AB00008460068FFF774FF0449086008460068AC
:100AC00070BD000020000020140000201C00002049
:100AD0000000CE4270B5002031490860002201219B
:100AE000304800F017FA00F01BFA05462E4E0CE0D5
:100AF00000F016FA401B322803D8301EA6F101067A
:100B000002D12748006870BD00BF0221254800F0CF
:100B1000F9F90028ECD0002425E0642000F05AF810
:100B2000012211461F4800F0F5F91D4800684000F9
:100B30001B490860012000F04DF8002201211948EE
:100B400000F0E8F9012000F045F80221154800F016
:100B5000D9F920B112480068401C114908600120F1
:100B600000F038F8641C182CD7DB012211460D4820
:100B700000F0D0F90A48006800F4000028B10848E5
:100B8000006840F07F4006490860012000F022F82C
:100B900000220121034800F0BDF901480068B2E7D6
:100BA0000C00002000080140400D030070B5044611
:100BB00000F0B6F906462546681C10B104480078D6
:100BC000054400BF00F0ACF9801BA842FAD370BD09
:100BD0004000002000EB800000E0401E0028FCD117
:100BE000704700002DE9F8470346002294466EE165
:100BF0004FF0010808FA02F4D1F8008008EA040076
:100C0000A0427DD1DFF8DCA2D1F80480A8EB0A096C
:100C1000D0453AD014DCB8F1030F50D009DCB8F15C
:100C2000000F31D0B8F1010F1CD0B8F1020F49D13B
:100C300020E0B8F1110F18D0B8F1120F42D11EE028
:100C4000B9F5881F25D006DCB9F5803F20D0B9F56D
:100C5000801F37D11AE0B9F5001F18D0B9F5041F6D
:100C600030D117E0D1F80CC02DE0D1F80C8008F19C
:100C7000040C28E0D1F80C8008F1080C23E0D1F82E
:100C80000C8008F10C0C1EE000BF00BF00BF00BFCD
:100C900000BF00BFD1F80880B8F1000F02D14FF0BB
:100CA000040C0BE0D1F80880B8F1010F03D14FF02C
:100CB000080C1C6102E04FF0080C5C6103E04FF08F
:100CC000000C00E000BF00BFFF2801D8984601E0FB
:100CD00003F104084646FF2802D84FEA820803E0E1
:100CE000A2F108084FEA88084746D6F800804FF07E
:100CF0000F0909FA07F928EA09080CFA07F900E0D0
:100D000088E048EA0908C6F80080D1F8048008F0B5
:100D10008058B8F1805F7DD100BFDFF8CC81D8F872
:100D2000188048F00108DFF8C091C9F81880C8465B
:100D3000D8F8188008F00108CDF8008000BF00BF87
:100D40004FEAB9384FEA920958F829504FEA8278A9
:100D50004FEA18794FF00F0808FA09F825EA080554
:100D6000DFF88881434502D14FF0000816E0DFF834
:100D70008081434502D14FF001080FE0DFF8748114
:100D8000434502D14FF0020808E0DFF86C8143458B
:100D900002D14FF0030801E04FF004084FEA8279D6
:100DA0004FEA197908FA09F848EA0505DFF84C8195
:100DB0004FEA920948F82950D1F8048008F48018C5
:100DC000B8F5801F0AD1DFF83881D8F8008048EAEA
:100DD0000008DFF82C91C9F8008009E0DFF82081D5
:100DE000D8F8008028EA0008DFF81491C9F80080DC
:100DF000D1F8048008F40018B8F5001F10D1DFF80E
:100E0000008108F10408D8F8008048EA0008DFF8FB
:100E1000F09000E05AE009F10409C9F800800DE003
:100E2000DFF8DC8008F10408D8F8008028EA000820
:100E3000DFF8CC9009F10409C9F80080D1F80480EA
:100E400008F40038B8F5003F0ED1DFF8B480A8F1FF
:100E50000408D8F8008048EA0008DFF8A490A9F157
:100E60000409C9F800800DE0DFF89480A8F10408B7
:100E7000D8F8008028EA0008DFF88490A9F1040976
:100E8000C9F80080D1F8048008F48038B8F5803FB4
:100E90000ED1DFF86C80A8F10808D8F8008048EA85
:100EA0000008DFF85C90A9F10809C9F800800DE09E
:100EB000DFF84C80A8F10808D8F8008028EA00087C
:100EC000DFF83C90A9F10809C9F80080521CD1F85C
:100ED000008028FA02F8B8F1000F7FF489AEBDE86F
:100EE000F8870000000011100010024000080140C7
:100EF000000C0140001001400014014008000140B6
:100F000008040140024693680B400BB1012000E049
:100F1000002070470AB1016101E00B0403617047D2
:100F2000014800687047000038000020034800684E
:100F300003490978084401490860704738000020D7
:100F40004000002010B50848006840F01000064935
:100F50000860032000F0A8F80F2000F007F800F068
:100F60002BF8002010BD00000020024070B50446A0
:100F70000E4800784FF47A71B1FBF0F00C49096823
:100F8000B1FBF0F5284600F0FAFB08B1012070BD76
:100F9000102C07D200222146501E00F047F80548C9
:100FA000046001E00120F2E70020F0E740000020AB
:100FB000440000203C00002008B500BF11488069B3
:100FC00040F001000F4988610846806900F0010087
:100FD000009000BF00BF00BF0846C06940F08050CD
:100FE000C8610846C06900F08050009000BF00BF93
:100FF00000BF0549486820F0E06040F0007048609C
:1010000000BF08BD00100240000001400146084634
:10101000002809DB00F01F0301229A4043099B00CE
:1010200003F1E023C3F8002100BF70472DE9F05F12
:1010300080460D461646002701F0A8FA07463946B5
:101040002A46334601F00700C0F1070ABAF1040F3F
:1010500002D94FF0040A01E0C0F1070AD14600F1BD
:10106000040ABAF1070F02D24FF0000A01E0A0F122
:10107000030AD4464FF0010A0AFA09FAAAF1010A52
:101080000AEA020A0AFA0CFA4FF0010B0BFA0CFBFF
:10109000ABF1010B0BEA030B4AEA0B042146404675
:1010A00001F07CFABDE8F09F00BF00F00702064B9C
:1010B00019684FF6FF031940044B0B4343EA022122
:1010C000014B196000BF70470CED00E00000FA050D
:1010D00070B504460D460CB9012070BD5A48006831
:1010E00000F00700A8420ED25748006820F0070021
:1010F0002843554908600846006800F00700A842E8
:1011000001D00120E9E7207800F0020002281DD17B
:10111000207800F00400042805D14C48406840F4D1
:10112000E0604A494860207800F00800082805D1AE
:101130004648406840F4605044494860434840682D
:1011400020F0F000A168084340494860207800F092
:10115000010078B36068012806D13C48006800F4BB
:10116000003090B90120B8E76068022806D13748FE
:10117000006800F0007040B90120AEE73348006815
:1011800000F0020008B90120A7E73048406820F0CD
:101190000300616808432D494860FFF7C1FE064619
:1011A00009E0FFF7BDFE801B41F28831884202D979
:1011B000032092E707E02548406800F00C006168D2
:1011C000B0EB810FEDD12048006800F00700A84285
:1011D0000ED91D48006820F0070028431A4908600E
:1011E0000846006800F00700A84201D0012074E71B
:1011F000207800F00400042807D11448406820F447
:10120000E060E168084311494860207800F0080078
:10121000082808D10D48406820F46050216940EA50
:10122000C1000A49486000F03FF808494968C1F325
:101230000311074A515CC840064908600648006827
:10124000FFF794FE002048E7002002400010024013
:10125000DE350008440000203C0000200148006802
:10126000704700004400002000B5FFF7F7FF044975
:101270004968C1F30221034A515CC84000BD000027
:1012800000100240EE35000800B5FFF7E7FF044903
:101290004968C1F3C221034A515CC84000BD000047
:1012A00000100240EE35000870B500210022002435
:1012B00000230020134D696801F00C05F5B1042DE1
:1012C00002D0082D19D101E00F4819E00F4DC1F3EC
:1012D0008346AB5D01F4803555B10A4D6D68C5F3A9
:1012E00040450B4E725D084D5D43B5FBF2F402E0E4
:1012F000084D03FB05F4204602E000BF024800BF92
:1013000000BF70BD0010024000127A00CC3500080A
:10131000DC35000800093D00F8B504460CB9012091
:10132000F8BD207800F00100002878D0F848406827
:1013300000F00C0004280CD0F548406800F00C00C8
:10134000082811D1F248406800F48030B0F5803FA1
:101350000AD1EF48006800F4003000285FD06068D0
:1013600000285CD10120DBE700BF6068B0F5803F5A
:1013700006D1E748006840F48030E549086028E07D
:10138000606858B9E248006820F48030E04908609D
:101390000846006820F4802008601AE06068B0F514
:1013A000A02F0BD1DA48006840F48020D8490860AB
:1013B0000846006840F4803008600AE0D4480068BD
:1013C00020F48030D24908600846006820F480206C
:1013D000086000BF606888B1FFF7A2FD054606E01F
:1013E000FFF79EFD401B642801D9032098E7C848F9
:1013F000006800F400300028F2D010E0FFF790FD04
:10140000054606E0FFF78CFD401B642801D9032048
:1014100086E7BF48006800F400300028F2D1207849
:1014200000F00200022857D1B948406800F00C00D3
:1014300050B1B748406800F00C00082818D1B448F3
:10144000406800F4803098B9B148006800F00200AC
:1014500020B12069012801D0012061E7AC48006873
:1014600020F0F800616940EAC100A949086033E052
:101470002069E8B10120A7490860FFF751FD054642
:1014800006E0FFF74DFD401B022801D9032047E786
:101490009F48006800F002000028F2D09C480068D5
:1014A00020F0F800616940EAC1009949086013E042
:1014B000002098490860FFF733FD054606E0FFF776
:1014C0002FFD401B022801D9032029E7904800681E
:1014D00000F002000028F2D1207800F0080008286F
:1014E0002DD1A069B8B101208B490860FFF718FD24
:1014F000054606E0FFF714FD401B022801D9032032
:101500000EE78348406A00F002000028F2D0012074
:1015100000F07CFE13E000207F490860FFF700FD2B
:10152000054606E0FFF7FCFC401B022801D903201A
:10153000F6E67748406A00F002000028F2D12078F1
:1015400000F00400042873D100277148C06900F03E
:10155000805070B900BF6E48C06940F080506C493F
:10156000C8610846C06900F08050009000BF00BF0D
:1015700001276A48006800F48070B0B967480068C5
:1015800040F4807065490860FFF7CAFC054606E034
:10159000FFF7C6FC401B642801D90320C0E65F4862
:1015A000006800F480700028F2D000BFE0680128D5
:1015B00006D15748006A40F001005549086227E00B
:1015C000E06858B95248006A20F0010050490862AA
:1015D0000846006A20F00400086219E0E068052867
:1015E0000BD14B48006A40F00400494908620846A4
:1015F000006A40F0010008620AE04548006A20F0F5
:101600000100434908620846006A20F004000862AD
:1016100000BFE068A0B1FFF783FC054609E0FFF7D3
:101620007FFC401B41F28831884202D9032077E6D3
:1016300022E03748006A00F002000028EFD012E0F4
:10164000FFF76EFC054608E0FFF76AFC401B41F21D
:101650008831884201D9032062E62D48006A00F0F3
:1016600002000028F0D1012F05D12948C06920F0DF
:1016700080502749C86100BFE069C8B3244840686A
:1016800000F00C00082860D0E069022848D1002052
:1016900020490866FFF744FC054606E0FFF740FCDA
:1016A000401B022801D903203AE61948006800F0DF
:1016B00000700028F2D1206AB0F5803F07D11448AD
:1016C000406820F40030A168084311494860D4E91B
:1016D000080108430E49496821F4741108430C4974
:1016E000486001200B490866FFF71AFC054607E031
:1016F0003DE0FFF715FC401B022801D903200FE64F
:101700000348006800F000700028F2D02FE00000CD
:10171000001002400000424280044242007000403B
:10172000002014490866FFF7FBFB054606E0FFF7BB
:10173000F7FB401B022801D90320F1E50E480068A1
:1017400000F000700028F2D111E0E069012800D11A
:10175000E6E50948466806F48031206A814204D1F2
:1017600006F47011606A814201D00120D8E50020A2
:10177000D6E500000000424200100240704770B5FC
:1017800004462546681EB0F1807F01D301200FE09A
:10179000681E4FF0E02148610F214FF0FF3000F04C
:1017A000FDFE00204FF0E021886107200861002045
:1017B00070BD10B5FFF7E2FF10BD70477047000025
:1017C00030B502460B4600BF92F83C00012801D11B
:1017D000022030BD012082F83C0000BF022082F8C8
:1017E0003D00106844681068816824F0700418682F
:1017F000044310684460104D1068A8420BD0106874
:10180000B0F1804F07D00D4D1068A84203D00C4DA9
:101810001068A84205D121F0800158680143106882
:101820008160012082F83D0000BF002082F83C006A
:1018300000BF00BFCDE70000002C014000040040C5
:101840000008004010B504460CB9012010BD94F802
:101850003D0028B9002084F83C00204600F026F81E
:10186000022084F83D00211D206800F027FD0120A2
:1018700084F8460000BF84F83E0001213F20015556
:10188000402001554120015500BF00BF012084F8D0
:10189000420043200155442001554520015500BF19
:1018A000012084F83D000020D0E7000038B5044650
:1018B0002068B0F1804F15D100BF0B48C06940F0DF
:1018C00001000949C8610846C06900F001000090A4
:1018D00000BF00BF002211461C20FFF7A7FB1C2001
:1018E000FFF794FB38BD0000001002402DE9F041E5
:1018F00004460D46002700BF94F83C00012802D1A1
:101900000220BDE8F081012084F83C0000BF0220E5
:1019100084F83D002068866826F0770626F47F4626
:10192000206886602868502833D00CDC202850D0EE
:1019300004DC00284BD0102851D149E0302849D090
:1019400040284CD139E060282DD0702807D0B0F560
:10195000805F03D0B0F5005F41D10DE041E0D5E9F3
:1019600002136A68206800F0E3FC2068866846F08D
:1019700077062068866034E0D5E902136A6820683B
:1019800000F0D6FC2068806840F4804021688860C0
:1019900027E0EA686968206800F0DEFC50212068D2
:1019A00000F0D1FC1DE0EA686968206800F0E7FCFF
:1019B0006021206800F0C7FC13E0EA6869682068CD
:1019C00000F0CAFC4021206800F0BDFC09E000BF27
:1019D00000BF00BF2968206800F0B5FC01E00127C6
:1019E00000BF00BF012084F83D0000BF002084F844
:1019F0003C0000BF384684E7704710B504462068B5
:101A00000069C0F34000D8B12068C068C0F340004E
:101A1000B0B16FF0020021680861012020772068D2
:101A2000806900F0030018B12046FFF7E5FF05E0EC
:101A3000204600F0ADF8204600F0ABF800202077FB
:101A400020680069C0F38000D8B12068C068C0F386
:101A50008000B0B16FF00400216808610220207797
:101A60002068806900F4407018B12046FFF7C4FF79
:101A700005E0204600F08CF8204600F08AF80020AF
:101A8000207720680069C0F3C000D8B12068C06822
:101A9000C0F3C000B0B16FF00800216808610420F5
:101AA00020772068C06900F0030018B12046FFF7D6
:101AB000A3FF05E0204600F06BF8204600F069F82F
:101AC0000020207720680069C0F30010D8B120689A
:101AD000C068C0F30010B0B16FF010002168086159
:101AE000082020772068C06900F4407018B12046B3
:101AF000FFF782FF05E0204600F04AF8204600F09C
:101B000048F8002020772068006900F0010058B1F3
:101B10002068C06800F0010030B16FF0010021685A
:101B20000861204600F036F820680069C0F3C01054
:101B300058B12068C068C0F3C01030B16FF08000A9
:101B4000216808612046FFF738FE20680069C0F36D
:101B5000801058B12068C068C0F3801030B16FF0B9
:101B6000400021680861204600F015F820680069EF
:101B7000C0F3401058B12068C068C0F3401030B1C5
:101B80006FF02000216808612046FFF717FE10BDA6
:101B9000704770477047704710B504460CB9012074
:101BA00010BDA06900B100E000BF94F8410028B961
:101BB000002084F84000204600F02AF8242084F811
:101BC00041002068C06820F400502168C8602046A9
:101BD00000F0EAFB2068006920F490402168086169
:101BE0002068406920F02A00216848612068C068A8
:101BF00040F400502168C86000206064202084F810
:101C0000410084F842000020606300BFC8E7000084
:101C100010B586B004460020029003900490059011
:101C20001A49206888422ED100BF1948806940F4C3
:101C30008040174988610846806900F4804001901F
:101C400000BF00BF00BF0846806940F00400886103
:101C50000846806900F00400019000BF00BF4815ED
:101C60000290022003900320059002A90948FEF784
:101C7000B9FF4FF48060029000200390049002A905
:101C80000448FEF7AFFF06B010BD00000038014069
:101C900000100240000801402DE9F84F04460E46AE
:101CA000174699464FF0000A94F8410020284AD17F
:101CB00006B117B90120BDE8F88F0020606421202B
:101CC00084F84100FFF72CF98246A784E784A068D6
:101CD000B0F5805F04D1206910B90025B04602E05C
:101CE00035464FF000081BE0534600228021204675
:101CF000CDF8009000F0D6FB08B10320DBE745B932
:101D0000B8F80000C0F308002168486008F1020834
:101D100003E02878216848606D1CE08C401EE08458
:101D2000E08C0028E0D15346002240212046CDF827
:101D3000009000F0B7FB08B10320BCE7202084F836
:101D400041000020B7E70220B5E700BFFEE7000032
:101D500000B585B00020019002900390049000BF70
:101D60001A48806940F02000184988610846806957
:101D700000F02000009000BF00BF00BF084680694F
:101D800040F0040088610846806900F0040000907B
:101D900000BF00BF002201210D48FFF7BBF8012062
:101DA00001900290002003900320049001A90848AC
:101DB000FEF718FF0220019000200290039001A975
:101DC0000348FEF70FFF05B000BD00000010024001
:101DD0000008014000B587B00020039004900590F2
:101DE0000690019002904FF0804013490860472010
:101DF00048600021104881606321C16000210161B9
:101E00008161FFF71FFD08B1FEF7ABFD4FF4805075
:101E1000039003A90848FFF769FD08B1FEF7A1FD8B
:101E200000200190029001A90348FFF7C9FC08B106
:101E3000FEF797FD07B000BD4C00002010B50B4821
:101E40000B4908604FF4E130486000210848816088
:101E5000C16001610C21416100218161C161FFF715
:101E60009BFE08B1FEF77DFD10BD0000003801406B
:101E70009400002000BFFEE700BFFEE770B500241D
:101E80000EE00021204600F0F8F8002504E00020D4
:101E900000F0AAF9681CC5B2802DF8DB601CC4B242
:101EA000082CEEDB70BD000000B585B000BF124805
:101EB000806940F00800104988610846806900F098
:101EC0000800009000BF00BF112002900020039086
:101ED000032004900002019001A90848FEF782FE49
:101EE000012251020548FFF715F8012211020348AB
:101EF000FFF710F805B000BD00100240000C0140D3
:101F000070B50546002419E080202041284008B122
:101F1000012000E0002002464FF480710E48FEF7D9
:101F2000F9FF012251020C48FEF7F4FF00224FF4A2
:101F300000710948FEF7EEFF601CC4B2082CE3DB19
:101F4000012251020448FEF7E5FF00224FF4007120
:101F50000148FEF7DFFF70BD000C014010B5012203
:101F600011020A48FEF7D6FF012251020748FEF788
:101F7000D1FF00224FF480710448FEF7CBFF00220E
:101F80004FF400710148FEF7C5FF10BD000C014081
:101F900010B500224FF480710648FEF7BBFF012206
:101FA00051020448FEF7B6FF012211020148FEF774
:101FB000B1FF10BD000C014070B5002406E0002503
:101FC00000E06D1CB5F57A7FFBD3641CB4F57A7F15
:101FD000F5D3FFF769FFAE2000F0F6F8D52000F04A
:101FE000F3F8802000F0F0F8A82000F0EDF83F2092
:101FF00000F0EAF8D32000F0E7F8002000F0E4F861
:10200000402000F0E1F8A12000F0DEF8C82000F048
:10201000DBF8DA2000F0D8F8122000F0D5F88120A3
:1020200000F0D2F8CF2000F0CFF8D92000F0CCF8A3
:10203000F12000F0C9F8DB2000F0C6F8302000F0F5
:10204000C3F8A42000F0C0F8A62000F0BDF88D2051
:1020500000F0BAF8142000F0B7F8AF2000F0B4F8A0
:10206000FFF70CFF70BD10B50246012000E05043A1
:102070000B1EA1F10101FAD110BD70B505460C4649
:1020800045F0B00000F0A0F8102141EA141000F073
:102090009BF804F00F0000F097F870BD2DE9F041B7
:1020A00005460E461746721ED206110E6A1E5206CD
:1020B000100EFFF7E2FF002409E0A7F12001134A08
:1020C00002EB0111085D00F08FF8601CC4B2082C0F
:1020D000F3DB721ED206110E6A1E012303EB4202CD
:1020E000D0B2FFF7CAFF00240BE0A7F12001074A96
:1020F00002EB011204F10801505C00F075F8601C5D
:10210000C4B2082CF1DBBDE8F0810000DC2F000830
:102110002DE9F04F89B081468A4617461C46214674
:102120000A20FFF7A0FF05462846FEF71FF93946AB
:102130000190FEF7A2F88346FEF71DF9064696FBCE
:10214000F5F00290002E01DA704200E03046B0FB5C
:10215000F5F105FB11080AA25146484600F020F8A7
:10216000CDE900480BA2182103A8029B00F0F6F964
:1021700003AA5146484600F013F809B0BDE8F08FB5
:10218000202020202020202020202020202020204F
:1021900000000000256C642E25302A6C75000000BC
:1021A0002DE9F04107460E461546002407E02A5D5A
:1021B0003019C1B23846FFF771FF601CC4B2285D08
:1021C0000028F4D1BDE8F08110B50446FFF7C6FE43
:1021D0007820FFF795FE0020FFF792FE2046FFF7DC
:1021E0008FFEFFF7D5FE10BD10B50446FFF7B6FE13
:1021F0007820FFF785FE4020FFF782FE2046FFF79C
:102200007FFEFFF7C5FE10BD7047000008B5084906
:102210000968C9084FF47A72B1FBF2F141430091A9
:1022200000BF00BF00994A1E00920029F9D108BDE5
:1022300044000020704710B5FEF778FEFFF7B9FAAA
:1022400010BD00B58FB0282105A8FDF7B3FF1421FC
:102250006846FDF7AFFF01200590000406900020BE
:1022600007900120099002200C90C1030D914FF4BA
:10227000E0110E9105A8FFF74FF808B1FEF771FBCA
:102280000F20009002200190002002904FF4806007
:1022900003900020049002216846FEF719FF08B160
:1022A000FEF75FFB0FB000BD7047000010B502489D
:1022B000FFF7A3FB10BD00004C00002010B5026822
:1022C000184B984208D0B0F1804F05D0164B984279
:1022D00002D0164B984203D122F070024B681A4389
:1022E000104B984208D0B0F1804F05D00E4B984269
:1022F00002D00E4B984203D122F44072CB681A43AD
:1023000022F080034C6943EA040202608B68C362D6
:102310000B688362034B984201D10B69036301236D
:10232000436110BD002C0140000400400008004043
:1023300030B50C46816821F47F4142EA03252543EC
:102340002943816030BD0A46816821F0700142F066
:10235000070319438160704730B50B461446026A83
:10236000056A25F001050562816921F0F00141EA65
:10237000041122F00A021A438161026230BD30B5B5
:102380000B461446026A056A25F01005056281694C
:1023900021F4704141EA043122F0A00242EA031222
:1023A0008161026230BD000070B504462168096990
:1023B00021F44051E2681143226811612269A16849
:1023C0001143626941EA02052168C96841F20C6261
:1023D000914329432268D1602168496921F4407101
:1023E000A2691143226851612D4A2168914202D1AC
:1023F000FEF74AFF01E0FEF737FF00EBC00101EBFB
:10240000001162689200B1FBF2F100EBC00202EB36
:10241000001263689B00B2FBF3F26423B2FBF3F299
:1024200002EBC20303EB0212A1EB8201322202EBA8
:1024300001116422B1FBF2F101F0F00100EBC002E6
:1024400002EB001263689B00B2FBF3F26423B2FB61
:10245000F3F201EB021200EBC00101EB0011636823
:102460009B00B1FBF3F100EBC00303EB00136668C4
:10247000B600B3FBF6F36426B3FBF6F303EBC30637
:1024800006EB0313A1EB8301322303EB0111642359
:10249000B1FBF3F101F00F0111442268916070BDAE
:1024A000003801402DE9F04104460D461746984694
:1024B000069E34E0701C88B32EB1FEF731FDA0EB10
:1024C0000800B0422BD900BF00BF21680C3151E891
:1024D000001F21F4D07021680C3141E80002002A6D
:1024E000F3D100BF00BF00BF2168143151E8001FC5
:1024F00021F001002168143141E80002002AF3D1E3
:1025000000BF202084F8410084F8420000BF002072
:1025100084F8400000BF0320BDE8F081FFE7206899
:1025200000682840A84201D1012000E00020B84204
:10253000C0D00020F0E700BFFEE700000FB4054B5D
:1025400010B503A9044A029800F00EF910BC5DF81A
:1025500014FB0000AD2E0008480000200FB41CB58D
:102560000246002007AC00290BD0491ECDE900210E
:10257000054B6A462146069800F0F6F8009A0021BD
:1025800011701CBC5DF814FB972E0008024800680F
:10259000C0F30220704700000CED00E010B50028E9
:1025A00004DB0A07130E054A135406E00A07140E4B
:1025B000034A00F00F031B1FD45410BD00E400E0D9
:1025C00018ED00E002E008C8121F08C1002AFAD185
:1025D00070477047002001E001C1121F002AFBD1A3
:1025E000704700002DE9FF5F82B00021DDE9043073
:1025F000020DDDF840B0034318D044F61050A2F2AB
:10260000FF3242431514119801281FD0A5EB0B008F
:10261000401C5FEA000A4FF000064E4FDFF8389189
:10262000B046504615D5CAF1000413E011980124B4
:102630004AA3012801D16FEA0B010298119AC0E95F
:102640000031C0E9024206B0BDE8F09FCBF10000C6
:10265000DFE704460021404A491842EB0450CDE927
:10266000001012E0E00707D032463B46404649469C
:10267000FDF7D2FF8046894632463B461046194652
:10268000FDF7CAFF06460F466410002CEAD1DDE9CB
:102690000401DDE90023BAF1000F06DAFDF7BCFF03
:1026A00042464B46FDF7B8FF05E0FEF727F84246E5
:1026B0004B46FEF723F804460E460022284BFEF751
:1026C000A5F803D84FF0FF30014607E00022254B64
:1026D00020463146FDF7F9FEFEF77FF8102409E0A9
:1026E000002C0ADB0A220023FDF787FE039B303211
:1026F0001A55641E50EA0102F2D1641C039AC4F117
:1027000011031444119A012A03D0012208430DD168
:102710000AE0084304D000204FF0110B119072E73B
:10272000A3EB0B056D1E0DE05B4504DD4FF00002D1
:1027300005F1010504E003DA4FF00002A5F10105FF
:10274000002AECD002981199C0E90231C0E9004595
:1027500079E70000000014400000F03F3000000066
:102760000000F0430000E03F2DE9FF4F95B09B468D
:102770008946064600250FE2252877D10024274602
:10278000F84A0121059400E0044316F8013F203B7C
:1027900001FA03F01042F7D130782A2811D06FF0F7
:1027A0002F033078A0F13002092A16D8059A44F098
:1027B000020402EB820203EB42021044761C0590F5
:1027C000EFE759F8042B0592002A03DA504244F44B
:1027D0000054059044F00204761C30782E2816D15F
:1027E00016F8010F44F004042A280DD06FF02F02D0
:1027F0003078A0F13003092B09D807EB870302EBEF
:102800004303C718761CF3E759F8047B761C30782D
:102810006C280FD006DC4C2817D068280DD06A2809
:1028200014D104E0742810D07A280FD10DE044F4BC
:1028300000140AE044F4801401E044F44014727877
:10284000824202D104F58014761C761C307866280A
:102850000BD013DC582877D009DC002875D0452828
:10286000F6D04628F4D047281AD19DE118E0632815
:1028700035D0642879D0652812D195E1702873D0BD
:1028800008DC6728F1D069286FD06E280DD06F283A
:1028900006D1B5E073282CD0752875D0782874D06F
:1028A0005A46179990476D1C75E1C4F302500228EF
:1028B00009D003280DD0D9F8001004280DD00D60E0
:1028C00009F1040967E1D9F80010EA17C1E90052DB
:1028D000F6E7D9F800100D80F2E70D70F0E719F86F
:1028E000041B8DF8001000208DF80100EA4601203D
:1028F00003E059F804AB4FF0FF3061074FF00001DF
:1029000002D40DE008F101018846B9420FDA804592
:10291000F8DB1AF808100029F4D108E008F10101E9
:1029200088468142FADB1AF808100029F6D105988A
:102930005B46A0EB080721463846179A00F094FA48
:10294000284400EB080507E04DE029E10DE01AF806
:10295000010B5A4617999047B8F10108F7D25B4628
:1029600021463846179A13E142E00A220092C4F346
:1029700002524FF0000A022A08D059F804CB032A69
:102980004FEAEC710AD00DE029E02AE009F10701D5
:1029900021F00702F2E802C1914609E00FFA8CFC2F
:1029A0004FEAEC71042A03D14FFA8CFC4FEAEC7128
:1029B000002907DA0A460021DCF1000C61EB020174
:1029C0002D2202E0220504D52B228DF804200122BD
:1029D00003E0E20701D02022F7E7904659E00A2100
:1029E00002E010220DE010214FF0000A00910BE0F0
:1029F00010224FF0000A44F004040827009203E07C
:102A000008224FF0000A0092C4F30252022A05D0B5
:102A100059F804CB0021032A08D009E009F1070185
:102A200021F00702F2E802C1914605E01FFA8CFC92
:102A3000042A01D10CF0FF0C4FF00008220728D522
:102A4000702806D0009B83F0100353EA0A0305D0D8
:102A50000EE040228DF80420012208E05CEA010229
:102A600006D030228DF804208DF805000222904611
:102A7000009B83F0080353EA0A030AD15CEA0102CF
:102A800001D1620705D530228DF804204FF00108EE
:102A90007F1E582804D034A003900EA802900DE0A9
:102AA00036A0F9E753466046009AFDF7A6FC844637
:102AB0000398825C0298401E029002705CEA01005A
:102AC000F0D1029806A9081A00F1200A600702D581
:102AD00024F4803400E00127574502DDA7EB0A000B
:102AE00000E0002000EB0A01009005984144401AE4
:102AF0000590E00306D45B462146179A059800F03E
:102B0000B3F90544002706E001A85A46C05D1799AD
:102B100090476D1C7F1C4745F6DBE0030CD55B46F8
:102B20002146179A059800F09FF9054404E03020EB
:102B30005A46179990476D1C0099481E009000292D
:102B4000F5DC08E0029802995A460078491C029187
:102B5000179990476D1CBAF10001AAF1010AF1DC46
:102B600065E1000009280100303132333435363751
:102B700038396162636465660000000030313233C9
:102B80003435363738394142434445460000000069
:102B900000F058F90544761C307800287FF4ECAD3D
:102BA00019B02846BDE8F08F620700D4062709F166
:102BB000070222F0070CFCE80223E14603F000487C
:102BC0005FEA080C02D00FF2702C0DE05FEA045CA3
:102BD00002D50FF2682C07E05FEAC47C02D00FF246
:102BE000602C01E0AFF2700C4FF0FF3823F000438F
:102BF000CDF850C065280CD006DC452809D0462801
:102C00001DD047283DD13DE0662818D067287ED1E9
:102C100038E00021112F01DB112000E0781CCDE904
:102C2000000106A90EA8FFF7DDFCDDE90F010E9AF1
:102C300003910021009207F1010A04914DE04FF049
:102C400000400097CDE9011006A90EA8FFF7CAFCC5
:102C5000DDE90F0203920E9B11990022DDF80CA012
:102C60000093049211B9791C00EB010AB7EB0A003A
:102C700004D4C0F1FF3007F1010A0490AAEB070069
:102C8000019044E0012F00DA01270021112F01DD1E
:102C9000112000E03846CDE9000106A90EA8FFF793
:102CA000A1FCDDE90F010E9A03910021049100922D
:102CB000BA4621070CD40399514500DA8A46BAF185
:102CC000010F05DD009AAAF10101515C302908D0FD
:102CD000B84202DA10F1040F06DA0121CDE9011041
:102CE00015E0AAF10101E9E7002805DC0499014497
:102CF0000491AAEB000102E0411C514500DD8A4627
:102D00000499401A401C01904FF0004002902007A7
:102D100004D40198504501DBCDF8048000208DF8E3
:102D20004F0002980DF14F07B0F1004F25D02B2036
:102D30000E9002984FF0020800280CDA40420290F0
:102D40002D200E9007E00A210298FDF740FB30315C
:102D5000029007F8011DB8F10001A8F10108F2DCAA
:102D600002980028EFD1791E0E980870307800F094
:102D7000200040F0450007F8020D12A8C01B00F12A
:102D800007081498007800B1012000EB0A010198AF
:102D900001EBE07105984144401A401E0590E003A4
:102DA00006D45B462146179A059800F05DF8054465
:102DB0001498007818B15A46179990476D1CE00393
:102DC00024D55B462146179A059800F04DF8054436
:102DD0001CE00498002807DBDDE90301884203DDDD
:102DE0000098405C179901E0179930205A469047A7
:102DF000049805F10105401C04900198401E0190C3
:102E000004D12E205A46179990476D1CBAF1000143
:102E1000AAF1010ADDDC05E017F8010B5A46179903
:102E200090476D1CB8F10001A8F10108F4DC5B4685
:102E30002146179A0598ABE62D0000002B000000F4
:102E4000200000002DE9F041044600251E461746EB
:102E5000880404D405E039462020B0476D1C641E68
:102E6000F9D52846BDE8F0812DE9F041044600255A
:102E70001E469046C80301D5302700E0202788046D
:102E800004D505E041463846B0476D1C641EF9D5AF
:102E90002846BDE8F0814A68002A06D00A68531C1B
:102EA0000B6010704868401E4860704713B50C46B0
:102EB000FF23012269460248FEF7EEFE00981CBD82
:102EC00094000020FEF73EF8FFF7BBF9FEF740FF45
:102ED000FEF7B4FFFEF77EFFFFF76EF828A2012190
:102EE0000846FFF75DF90423002201210220FFF7C5
:102EF0000FF926A201210320FFF752F927A2012191
:102F00000420FFF74DF941F28830FDF74FFE27A26C
:102F100001210420FFF744F94FF47A70FDF746FED3
:102F2000FDF7A8FD2649086029E0FDF7A3FD404212
:102F30002349096808442349086008460068FDF7EA
:102F40000CFA05462049FDF798F904461F49FDF79C
:102F50003CF91F4908600423084601210268022049
:102F6000FFF7D6F81A480068FDF71EFA0446224615
:102F70000B4618A0FFF7E2FA7820FDF717FED4E71A
:102F80005765696768742867293A000046696C7458
:102F900065723A4D6F764176672020005374616206
:102FA000696C697A696E672020202000202020202B
:102FB0002020202020202020202020200000000091
:102FC00000000020040000205322893C3F35DE3EF3
:102FD00008000020252E34660D0A000000000000C5
:102FE000000000000000000000000000000000F8E9
:102FF00000000000000000333000000000100C064C
:10300000100C0600000000000000000040C07840E6
:10301000C0784000043F04043F040400007088FCB2
:1030200008300000001820FF211E0000F008F0000A
:10303000E018000000211C031E211E0000F008887B
:10304000700000001E2123241927211010160E00E5
:10305000000000000000000000000000000000E090
:1030600018040200000000071820400000020418A5
:10307000E00000000040201807000000404080F001
:10308000804040000202010F01020200000000F037
:10309000000000000101011F01010100000000000B
:1030A0000000000080B07000000000000000000080
:1030B0000000000000010101010101010000000009
:1030C00000000000003030000000000000000000A0
:1030D00080601804006018060100000000E010087D
:1030E0000810E000000F102020100F00001010F852
:1030F000000000000020203F202000000070080891
:103100000888700000302824222130000030088810
:10311000884830000018202020110E000000C02038
:1031200010F8000000070424243F240000F8088859
:10313000880808000019212020110E0000E01088E6
:1031400088180000000F112020110E000038080818
:10315000C83808000000003F000000000070880828
:1031600008887000001C222121221C0000E01008A9
:103170000810E0000000312222110F00000000C002
:10318000C00000000000003030000000000000809F
:10319000000000000000806000000000000080408F
:1031A00020100800000102040810200040404040A8
:1031B00040404000040404040404040000081020FB
:1031C0004080000000201008040201000070480840
:1031D0000808F0000000003036010000C030C828A8
:1031E000E810E0000718272423140B000000C03863
:1031F000E0000000203C23020227382008F88888DD
:1032000088700000203F202020110E00C0300808E8
:1032100008083800071820202010080008F80808BF
:103220000810E000203F202020100F0008F88888B8
:10323000E8081000203F20202320180008F8888884
:10324000E8081000203F200003000000C0300808FC
:103250000838000007182020221E020008F8080085
:103260000008F808203F210101213F20000808F84C
:10327000080800000020203F20200000000008086F
:10328000F8080800C08080807F00000008F888C02F
:1032900028180800203F20012638200008F80800E0
:1032A00000000000203F20202020300008F8F80017
:1032B000F8F80800203F003F003F200008F830C029
:1032C0000008F808203F200007183F00E010080819
:1032D0000810E0000F10202020100F0008F8080848
:1032E0000808F000203F210101010000E01008085B
:1032F0000810E0000F18242438504F0008F8888880
:1033000088887000203F2000030C3020007088085F
:10331000080838000038202121221C00180808F86D
:10332000080818000000203F2000000008F80800EE
:103330000008F808001F202020201F0008788800BF
:1033400000C83808000007380E010000F80800F82F
:103350000008F800033C0700073C030008186880D9
:103360008068180820302C03032C30200838C8004F
:10337000C83808000000203F20000000100808089E
:10338000C83808002038262120201800000000FE40
:10339000020202000000007F40404000000C30C0EC
:1033A00000000000000000010638C0000002020218
:1033B000FE000000004040407F00000000000402CA
:1033C00002020400000000000000000000000000F5
:1033D00000000000808080808080808000020204E5
:1033E00000000000000000000000000000008080DD
:1033F000808000000019242222223F2008F800804B
:1034000080000000003F112020110E00000000800D
:1034100080800000000E112020201100000000809C
:103420008088F800000E112020103F2000008080CE
:1034300080800000001F222222221300008080F0E2
:10344000888888180020203F20200000000080800D
:1034500080808000006B94949493600008F8008052
:1034600080800000203F210000203F2000809898AD
:10347000000000000020203F20200000000000800D
:103480009898000000C08080807F000008F800004D
:1034900080808000203F24022D302000000808F8A2
:1034A000000000000020203F20200000808080805D
:1034B00080808000203F20003F20003F80800080EF
:1034C00080800000203F210000203F2000008080FD
:1034D00080800000001F202020201F0080800080AE
:1034E0008000000080FFA12020110E00000000805D
:1034F00080808000000E112020A0FF80808080004E
:103500008080800020203F2120000100000080807A
:10351000808080000033242424241900008080E06F
:10352000808000000000001F20200000808000003C
:1035300000808000001F202020103F20808080001D
:103540000080808000010E3008060100808000802D
:10355000008080800F300C030C300F000080800052
:10356000808080000020312E0E312000808080007D
:103570000080808080818E7018060100008080802D
:10358000808080000021302C2221300000000000CB
:10359000807C020200000000003F4040000000006C
:1035A000FF00000000000000FF0000000002027C9D
:1035B000800000000040403F0000000000060101C4
:1035C00002020404000000000000000002030405E1
:1035D000060708090A0B0C0D0E0F1010010200005F
:1035E00000000000000001020304060708090000B3
:1035F000000001020304000018360008000000204B
:103600004C000000C4250008643600084C0000206F
:10361000C4040000D42500080000000000000000E1
:10362000000000000000000000000000000000009A
:10363000000000000000000000000000000000008A
:10364000000000000000000000000000000000007A
:103650000000000010000000010000000024F40041
:043660000000000066
:04000005080000ED02
:00000001FF
